:020000040800F2
:10000000D806002049010008FB2200085D1F0008F7
:10001000F9220008ED070008F52A0008000000009A
:10002000000000000000000000000000FF220008A7
:10003000FD07000800000000FD2200081D24000844
:100040006301000863010008630100086301000800
:10005000630100086301000863010008FF0700084E
:1000600063010008630100086301000863010008E0
:1000700063010008630100086301000863010008D0
:1000800063010008F107000863010008630100082C
:1000900063010008630100086301000863010008B0
:1000A00063010008630100086301000863010008A0
:1000B0006301000863010008630100086301000890
:1000C0006301000863010008630100086301000880
:1000D00063010008A92A0008B52A00086301000886
:1000E0006301000863010008630100086301000860
:1000F0006301000863010008630100086301000850
:10010000630100086301000863010008630100083F
:10011000630100086301000863010008630100082F
:10012000630100086301000863010008630100081F
:10013000DFF810D000F048FB00480047E92C000829
:10014000AFF30080D80600200648804706480047E5
:10015000FEE7FEE7FEE7FEE7FEE7FEE7FEE7FEE777
:10016000FEE7FEE77924000831010008202A04DBBD
:10017000203A21FA02F00021704721FA02F3D04020
:10018000C2F120029140084319467047D2B201E003
:1001900000F8012B491EFBD270470022F6E710B58C
:1001A00013460A4604461946FFF7F0FF204610BDE5
:1001B00080EA010210B502F00043400022D04A005C
:1001C0001FD0010E01EB1261C0F35600C2F35602BC
:1001D00040F4000042F40002A0FB022000047F393A
:1001E000140400D0401C50EA124001D44000491EC3
:1001F000C2B20C0604EBD010401C4008802A02D08A
:1002000003E0002010BD20F00100002900DA0020EA
:10021000184310BD30B480EA010202F0004530F00E
:10022000004221F0004013D090B1C30DD40DC2F3B1
:100230001601C0F31600E41A41F4000140F4000274
:100240007D34914201D3641C00E04900002C02DAA5
:1002500030BC002070474FF400000023914201D3CE
:10026000891A034340084FEA4101F7D151B1914245
:1002700002D14FF0004105E002D24FF0010101E050
:100280006FF0010103EBC450284430BC00F007BA02
:100290002DE9FE4F804681EA0300C00F0C46009016
:1002A00021F0004123F00045B8EB0200A94105D23E
:1002B0004046214690461C460B46024623F000402D
:1002C000104347D0270DC7F30A00C3F30A51029029
:1002D000401A019040286BDAC3F3130040F4801BEE
:1002E0000098924620B10023D2EB030A63EB0B0B7C
:1002F00001985946C0F14002504600F0AFF9064659
:100300000D4650465946019A00F0B7F910EB080027
:100310006141002487EA115284EAE7731A4340D00E
:10032000009A62B3019A012A4FEA075215DC001BBA
:1003300061EB02014FF0004202EA0752CDE90042B0
:10034000001C41F5801132462B4600F0EEF903B057
:10035000BDE8F08F40462146F9E7001B61EB020142
:10036000001C41F5801300185B412018A2F500170E
:1003700047EB030140EAD570B6196D4111E06D08F5
:100380004FEA360645EAC0754FEA0752001B61EB9B
:100390000201001C41F5801149084FEA30000019A4
:1003A000514132462B4603B0BDE8F04F00F0AEB9E4
:1003B0000098012240000023D0EB020263EBE073BF
:1003C000009821464FEAE074B8EB000061EB0401AD
:1003D000E9E783F000435BE781F0004158E72DE94E
:1003E000FE4F81EA030404F0004421F00041009430
:1003F0004FF0000B23F0004350EA01045ED052EAB4
:1004000003045BD0C3F30A54C1F30A552C44A4F28D
:10041000F3340194A0FB0254C1F3130141F48011A1
:10042000C3F3130343F4801301FB024400FB034EA8
:10043000840A970A44EA815447EA8357A4FB076871
:1004400002958D0A05FB07854FEA932C04FB0C549B
:100450002705029D4FEA065847EA1637B5EB08050F
:100460006EEB070C870E920E47EA811742EA831261
:10047000A7FB0201B6EB0B0164EB00042B0D43EA72
:100480000C335E1844EB1C50DA465146E7FB020180
:10049000C5F313044FEA0B3343EA14534FEA043213
:1004A000019C43EA0603A4F10C040294009CCDE9EC
:1004B00000B400F03AF903B0BDE8F08F0020014627
:1004C000F9E72DE9F04D81EA030404F0004B21F037
:1004D000004514464FF0000A23F0004150EA05029F
:1004E00020D054EA01021DD0C5F30A570246C5F3D5
:1004F0001303C1F31300C1F30A5640F4801543F40B
:100500008013A7EB0608101BD64608F2FD3873EBE4
:10051000050002D308F1010801E092185B41B8F12F
:10052000000F03DA00200146BDE8F08D00204FF4F3
:100530008011064684460EE0171B73EB050705D3B2
:10054000121B63EB050306434CEA010C49084FEA12
:10055000300092185B4150EA0107EDD152EA0300E6
:1005600012D082EA040083EA0501084305D0101B7B
:10057000AB4106D20122002306E000224FF00043E7
:1005800002E06FF0010253101AEB06004CEB085129
:1005900010EB0A0041EB0B01BDE8F04D00F0B6B8DE
:1005A00096230022114600F083B800F0004220F0AC
:1005B0000040C10DC0F3160040F400007F2901DAAD
:1005C00000207047962903DCC1F19601C84001E084
:1005D00096398840002AF4D04042704720F000400D
:1005E000C10DC0F3160040F400007F2901DA00209D
:1005F0007047962903DCC1F19601C84070479639CF
:1006000088407047C1F30A5210B5C1F3130140F29C
:10061000FF3341F480119A4201DA002010BD40F20C
:1006200033439A42A2F2334203DC5242FFF79EFD6B
:1006300010BD904010BD00F0004230F000400AD0E4
:10064000C10D01F56071C0F3160042EA0151C20804
:10065000400711437047002001467047202A04DB01
:10066000203A00FA02F1002070479140C2F12003C5
:1006700020FA03F3194390407047202A06DBCB177A
:10068000203A41FA02F043EAE07306E041FA02F34D
:10069000D040C2F12002914008431946704700291A
:1006A000A8BF7047401C490008BF20F001007047F8
:1006B00010B4B0FA80FC00FA0CF050EA010404BF58
:1006C00010BC704749B1CCF1200421FA04F411FAAE
:1006D0000CF118BF012121430843A3EB0C01CB1DF2
:1006E0004FEA00614FEA102042BF002010BC704763
:1006F00000EBC35010440029A4BF10BC7047401C3D
:10070000490008BF20F0010010BC704710B5141E4E
:1007100073F1000408DA401C41F1000192185B41BA
:100720001A4301D120F0010010BD2DE9F04D924691
:100730009B4611B1B1FA81F202E0B0FA80F22032A8
:100740009046FFF78BFF04460F4640EA0A0041EA55
:100750000B0153465A46084313D0114653EA010091
:1007600019D0C8F140025046FFF700FD05460E467D
:10077000504659464246FFF771FF084305D0012015
:1007800004E020463946BDE8F08D0020054346EAE6
:10079000E0762C4337430A986305E40AA0EB08008F
:1007A0000022FD0A44EA47540A3002D500200146DF
:1007B000E9E7010510196941DDE9084500196941BA
:1007C000BDE8F04DA2E70000064C074D06E0E068EA
:1007D00040F0010394E8070098471034AC42F6D388
:1007E000FFF7AAFCE42D0008042E0008FEE7000035
:1007F000014800F0D9B800009002002070470220A4
:1008000000F072BA094D4FF4FA740122082128460B
:1008100000F077FB204602F0B9F9002208212846B3
:1008200000F06FFB204602F0B1F9EEE70010014046
:1008300010B590F821100022022905D0042181630F
:1008400080F82020012010BD01680B6823F00E0302
:100850000B6001680B6823F001030B6090F84030D7
:10086000C46B012101FA03F3636080F8211080F862
:100870002020104610BD00002DE9F05F90F82110F7
:100880000024022903D004218163012485E001684A
:100890000A6822F00E020A6001680A6822F001026A
:1008A0000A603F4E3E4FB215DFF8F4C0DFF8F0901B
:1008B000DFF8ECA0DFF8E8B0DFF8E4E00168783FAB
:1008C00013011502ACF1640CA9F15009AAF13C0A1C
:1008D000ABF1280BAEF1140E4FF48018B14227D9BA
:1008E000B9420ED0614512D049451DD0514518D0AE
:1008F000594518D0714501D1424615E0294EB14203
:1009000001D1012210E0274E1436B14201D110224C
:100910000AE0244E2836B14206D0224A3C329142A7
:1009200001D11A4600E02A461E49091F0A602BE041
:10093000B94213D0614517D0494522D051451DD049
:1009400059451DD0714501D142461AE0B14202D14C
:100950004FF0807215E0134EB14201D1012210E038
:10096000104E1436B14201D110220AE00D4E283645
:10097000B14206D00B4A3C32914201D11A4600E006
:100980002A46074980394A60012180F82110002158
:1009900080F82010416B01B188472046BDE8F09FE8
:1009A00080000240080402402DE9F05FC16B0A6834
:1009B00001680B68046C4FF0040808FA04F8844DD1
:1009C000844E854FDFF814C2DFF81492DFF814A2CA
:1009D000DFF814B2DFF814E218EA020F65D05FEA1C
:1009E000437862D50A68920603D40A6822F00402AA
:1009F0000A60DFF8F0814FF48062016808F11408A2
:100A000013011402414524D9A9420DD0B1420FD09F
:100A1000B9421AD0614515D0494515D0514501D18B
:100A2000120312E0594501D104220EE0714501D1B3
:100A300040220AE06D4D1435A94206D06B4A283297
:100A4000914201D11A4600E022466749091F0A6017
:100A500029E0A94213D0B14215D0B94220D0614556
:100A60001BD049451BD0514502D14FF4800217E0FD
:100A7000414502D14FF0806212E0594501D1042274
:100A80000EE0714501D140220AE0584D1435A942CB
:100A900006D0564A2832914201D11A4600E0224639
:100AA0004B4908394A60C16A71E04FF0020808FA00
:100AB00004F818EA020F70D05FEA83786DD50A68EF
:100AC000920606D40A6822F00A020A60012180F820
:100AD0002110DFF810814FF40072016808F114084A
:100AE00013011402414524D9A9420DD0B1420FD0BF
:100AF000B9421AD0614515D0494515D0514501D1AB
:100B0000120312E0594501D102220EE0714501D1D4
:100B100020220AE0354D1435A94206D0334A283246
:100B2000914201D11A4600E022462F49091F0A606E
:100B300029E0A94213D0B14215D0B94220D0614575
:100B40001BD049451BD0514502D14FF4001217E08C
:100B5000414502D14FF0007212E0594501D1022205
:100B60000EE0714501D120220AE0204D1435A94242
:100B700006D01E4A2832914201D11A4600E0224690
:100B8000134908394A60002180F82010816A002941
:100B90001CD0BDE8F05F0847FFE70825A5401542D7
:100BA00014D01A0712D50A6822F00E020A6090F8D3
:100BB0004020C36B012101FA02F25A60816380F880
:100BC0002110002180F82010016BE0E7BDE8F09FC4
:100BD000080002401C000240300002404400024075
:100BE000580002406C000240080402401C0402400D
:100BF00030B560B11A4B026814219A4209D2194BE0
:100C00001344B3FBF1F18900016417490AE00120A4
:100C100030BD134B5B421344B3FBF1F18900016417
:100C20000F490839C163022180F82110136843F687
:100C3000F0718B43F0E901142143D0E902452C43C4
:100C400021430469214344692143846921431943B1
:100C5000116000214163012242770177084630BDCF
:100C600008040240F8FFFDBF0000024070B50446D2
:100C700000F04CF90546601C02D00448007804449A
:100C800000F044F9401BA042FAD370BD0C000020D4
:100C900070B502281CD10F4C002021684862204604
:100CA00000F0E4FC0C4D0221284600F025F9002854
:100CB000F9D1084800F00CFD2068406AFFF770FC8D
:100CC0000649FFF775FA0649FFF7A4FA05490860D7
:100CD00070BD00002000002000100140000088418D
:100CE00000007A4404000020044910B50A6802425A
:100CF00002D00860FFF7CCFF10BD000014040140D3
:100D00002DE9F84FDFF8C891002409F1040A0AF12F
:100D1000040B23460F270BF1040ED1E00125A5405B
:100D200006EA0502AA4276D1DFF8A8C14E68A6EB12
:100D30000C0866452BD00DDC032E34D005DC36B311
:100D4000012E19D0022E2FD11BE0112E16D0122EFB
:100D50002AD119E0B8F5881F19D006DCB8F5803F14
:100D600015D0B8F5801F1FD111E0B8F5001F0ED0C7
:100D7000B8F5041F18D10AE0CB6815E0CB681B1D3D
:100D800012E0CB6808330FE0CB680C330CE08B68C3
:100D90002BB1012B4FF0080303D0456104E004237D
:100DA00002E0056100E00023FF2A01D8064601E0C9
:100DB00000F104064FEA840501D9A5F12005D6F813
:100DC000008007FA05FC28EA0C0803FA05F548EA52
:100DD0000508C6F800804D68ED0070D53E4DAE693F
:100DE00046F00106AE61AD6924F0030605F0010589
:100DF00000953A4D06EB050CDCF80850A607360FB7
:100E000007FA06F825EA0805DFF8D480404503D143
:100E10004FF0000825E052E0DFF8C880404502D1DD
:100E20004FF001081DE0DFF8C080404502D14FF0CF
:100E3000020816E0DFF8B480404502D14FF0030805
:100E40000FE0DFF8AC80404502D14FF0040808E025
:100E5000DFF8A080404502D14FF0050801E04FF0D7
:100E6000060808FA06F848EA0508CCF808804D6834
:100E7000D9F80060ED034D4601D5164300E09643D6
:100E80002E604D68DAF80060AD03554601D5164373
:100E900000E096432E604D68DBF80060ED025D4691
:100EA00001D5164300E096432E604D68DEF80060E1
:100EB000AD02754601D5164300E096432E60641CD2
:100EC0000A681646E2407FF429AFBDE8F88F0000BB
:100ED0000004014000001110001002400000014019
:100EE00000080140000C01400010014000140140C6
:100EF00000180140001C01408068084000D001201B
:100F000070470AB1016170470904FBE70148806836
:100F1000704700000C0000200248816802781144EC
:100F2000816070470C000020074810B5016841F04F
:100F300010010160032000F079F8002000F006F8AD
:100F400000F024F8002010BD0020024070B50D4DC7
:100F500004464FF47A712878B1FBF0F00A49096829
:100F6000B1FBF0F000F0F0FA48B9102C07D20022E3
:100F70002146501E00F03AF800206C6070BD012040
:100F800070BD00000C000020180000200E4808B5BD
:100F9000816941F001018161816901F001010091E4
:100FA000C16941F08051C161C06900F0805000907A
:100FB000052000F03BF80548416821F0E06141F070
:100FC0000071416008BD00000010024000000140B7
:100FD000002809DB00F01F02012191404009800038
:100FE00000F1E020C0F8001170470000F0B40E4B93
:100FF0001B680C46C3F30223C3F10705042D00D977
:101000000425191D072901D2002300E0DB1E01265B
:1010100006FA05F1491E214099409E40761E164071
:101020003143F0BC01F070BD0CED00E0064900F06A
:10103000070208684FF6FF03184040EA0220034AFF
:1010400010430860704700000CED00E00000FA0556
:101050002DE9F0470F46050061D0434E306800F09F
:101060000700B84209D2306820F0070038433060EA
:10107000306800F00700B84251D128683B4C810726
:1010800012D5400703D5606840F4E06060602878BE
:10109000000703D5606840F4605060606068A9682C
:1010A00020F0F000084360602878C00728D0686806
:1010B000012810D02168022810D0890700292EDAD3
:1010C000616821F0030101436160FFF71FFF804663
:1010D00041F288390DE021688903EFE78901EDE7E6
:1010E000FFF714FFA0EB0801494502D90320BDE832
:1010F000F0876068696800F00C00B0EB810FEFD1F9
:10110000306800F00700B8420BD9306820F00700C3
:1011100038433060306800F00700B84201D0012049
:10112000E5E72878400705D56068E96820F4E060C5
:10113000084360602878000706D56068296920F4B4
:10114000605040EAC100606000F038F86168084A09
:10115000C1F30311515CC8400649086006480068A5
:10116000FFF7F4FE0020C2E700200240001002401A
:10117000CA2D00081800002010000020044805496E
:1011800000684968044AC1F30221515CC8407047B5
:101190001800002000100240DA2D0008044805491C
:1011A00000684968044AC1F3C221515CC8407047D5
:1011B0001800002000100240DA2D000812A185B0AE
:1011C0000FC98DE80F0014A0144A006804905168FC
:1011D000134801F00C03042B10D0082B0ED1C1F3DF
:1011E0008343C9031DF803000AD5516804AAC1F35B
:1011F0004041515C0A4A5043B0FBF1F005B07047E2
:1012000008494843FAE700000203040506070809F5
:101210000A0B0C0D0E0F101001020000001002400E
:1012200000127A0000093D002DE9F84F040070D04B
:101230002078C04DC00749D06868C0F381000128FC
:1012400007D06868C0F38100022809D16868C0032C
:1012500006D52868800339D560680028E7D035E0D6
:101260006068B0F5803F0BD010B1B0F5A02F11D061
:10127000286820F480302860286820F4802002E06C
:10128000286840F480302860606890B1FFF73EFE27
:1012900006460AE0286840F480202860F0E700BF96
:1012A000FFF734FE801B642873D828688003F7D5C5
:1012B0000CE0FFF72BFE064605E000BFFFF726FE19
:1012C000801B6428F0D828688003F7D420789A4ED1
:1012D00080074FF001094FF0000839D5686810F019
:1012E0000C0F07D06868C0F38100022809D1686834
:1012F000C00306D42868800714D52069012808D1C6
:1013000010E02069B0B1C6F80090FFF7FFFD074676
:1013100005E00AE1FFF7FAFDC01B0228C4D82868DF
:101320008007F7D52868616920F0F80040EAC1001D
:1013300028600DE0C6F80080FFF7E8FD074604E0EE
:10134000FFF7E4FDC01B022823D828688007F7D4E4
:10135000207800072CD57948A169D9B1C0F8009050
:10136000FFF7D4FD074604E0FFF7D0FDC01B0228BD
:101370000FD8686A8007F7D571484FF4FA510068B2
:10138000B0FBF1F0009000BF0098411E0091FAD22E
:101390000EE080E0C0F80080FFF7B8FD074604E0EB
:1013A000FFF7B4FDC01B022875D8686A8007F7D420
:1013B0002078400760D5E8690027C00008D4E869B4
:1013C00040F08050E861E869012700F0805000900B
:1013D0005C480168C90513D40168834641F48071F3
:1013E0000160FFF793FD824606E000BFFFF78EFD28
:1013F000A0EB0A0064284ED8DBF80000C005F5D544
:10140000E06801280AD008B1052813D0286A20F026
:1014100001002862286A20F0040002E0286A40F0F7
:1014200001002862E06841F2883B98B1FFF76EFD49
:1014300082460BE0286A40F004002862EEE700BF15
:10144000FFF764FDA0EB0A0159455AD8286A8007C6
:10145000F6D50CE0FFF75AFD824605E0FFF756FD92
:10146000A0EB0A0159454CD8286A8007F6D41FB171
:10147000E86920F08050E861E06988B36968C1F3E9
:101480008101022944D00228C6F8608004D0FFF709
:101490003DFD044638E034E0FFF738FD074604E040
:1014A000FFF734FDC01B02282BD828688001F7D431
:1014B000206AB0F5803F05D16868A16820F400304B
:1014C00008436860D4E908010843696821F474118D
:1014D00008436860C6F86090FFF718FD044606E010
:1014E00025E000BFFFF712FD001B022809D828687D
:1014F0008001F7D51BE000BFFFF708FD001B0228A5
:1015000002D90320BDE8F88F28688001F4D40EE0EA
:101510000128F7D06868226A00F48031914204D132
:10152000616A00F47010884201D00120EAE70020CF
:10153000E8E70000001002400000424280044242FE
:10154000180000200070004010B5401EB0F1807FF0
:1015500001D3012010BD4FF0E02460610F2160171E
:1015600001F0D2FA0020A06107202061002010BD08
:1015700070B590F83C20012A2CD0012480F83C4022
:10158000022280F83D2003685A689D6822F07006A8
:101590000A6832435A60104B02689A420ED00F4BD1
:1015A0009A420BD0B2F1804F08D00D4B9A4205D031
:1015B0000C4B9A4202D00C4B9A4204D1496825F058
:1015C00080031943916080F83D40002180F83C1071
:1015D000084670BD022070BD002C0140003401405F
:1015E0000004004000080040000C004010B504005A
:1015F00003D094F83D0010B107E0012010BD002099
:1016000084F83C00204600F01FF8022084F83D00DA
:10161000211D206800F032FF012084F8460084F884
:101620003E0084F83F0084F8400084F8410084F8CC
:10163000420084F8430084F8440084F8450084F8AC
:101640003D00002010BD000008B50068B0F1804FDB
:1016500008D10548C16941F00101C161C06900F0CC
:101660000100009008BD00000010024090F83D10FD
:10167000012901D001207047022180F83D10006847
:101680000E4988420ED00E4988420BD0B0F1804FEF
:1016900008D00C49884205D00B49884202D00B493A
:1016A000884204D1816801F00701062903D001684E
:1016B00041F001010160002070470000002C014052
:1016C000003401400004004000080040000C0040CD
:1016D00001680A6A41F211131A4207D10A6A9B1083
:1016E0001A4203D10A6822F001020A60012180F83F
:1016F0003D100020704770B5044690F83C0001286A
:1017000017D0012584F83C50022084F83D00206861
:10171000826822F0770222F47F42826008685028B3
:1017200030D00DDC20284DD005DC98B310283BD1FB
:1017300048E0022070BD302844D0402834D139E040
:10174000602828D0702806D0B0F5805F2CD0B0F586
:10175000005F29D10AE0CB68D1E90121206800F0BF
:10176000E0FE2068816841F0770109E0CB68D1E9AB
:101770000121206800F0D5FE2068816841F4804195
:10178000816011E0CA684968206800F09FFF50211D
:10179000206807E016E0CA684968206800F0A7FFE3
:1017A0006021206800F0C7FE84F83D50002084F8D6
:1017B0003C0070BDCA684968206800F087FF40217E
:1017C0002068EFE7226801461046EBE730B585B0A8
:1017D000002100910191029103910068244B254959
:1017E0000224254A254D98421AD1886940F0040008
:1017F0008861886900F004000490886940F008005E
:1018000088618869694600F0080004904020CDE9AD
:10181000000410460394FFF773FA009401940EE05D
:10182000174B984212D1886940F008008861886996
:1018300000F0080004904FF44070CDE900046946C0
:1018400028460394FFF75CFA05B030BD0D4B984273
:10185000FAD1886940F0040088618869694600F01F
:10186000040004900120CDE9000410460394E9E748
:10187000000400400010024000080140000C01403C
:1018800000080040000C004070B5044690F83C0091
:101890000D4601280AD0012084F83C0042B1042AF8
:1018A00018D0082A2AD00C2A4DD139E0022070BD68
:1018B000206800F049FE2068816941F008018161DB
:1018C0002068816921F004018161206881692A69A9
:1018D000114311E0206800F067FE2068816941F43F
:1018E000006181612068816921F4806181612068E3
:1018F00081692A6941EA0221816124E0206800F0BF
:1019000089FE2068C16941F00801C1612068C16990
:1019100021F00401C1612068C1692A69114311E005
:10192000206800F0ABFE2068C16941F40061C1612C
:101930002068C16921F48061C1612068C1692A6998
:1019400041EA0221C161002084F83C0070BD10B55D
:10195000040003D094F83D0010B107E0012010BD51
:10196000002084F83C00204600F01EF8022084F895
:101970003D00211D206800F081FD012084F8460013
:1019800084F83E0084F83F0084F8400084F8410069
:1019900084F8420084F8430084F8440084F8450049
:1019A00084F83D00002010BD08B5124A01681248B5
:1019B000914207D1C16941F00201C161C06900F0E3
:1019C000020009E00D4A914208D1C16941F00401C9
:1019D000C161C06900F00400009008BD084A91424E
:1019E000FBD1C16941F00801C161C06900F0080084
:1019F000F2E7000000040040001002400008004030
:101A0000000C004010B50446022249B104290ED052
:101A1000082913D094F84100012816D0012010BDE8
:101A200094F83E000128F9D184F83E200FE094F8A4
:101A30003F000128F2D184F83F2008E094F84000EC
:101A40000128EBD184F8402001E084F841200122F4
:101A5000206800F059FD13492068134A884201D0DC
:101A6000904203D1436C43F40043436420688842AE
:101A70000DD090420BD0B0F1804F08D00B49884276
:101A800005D00B49884202D00A49884204D18168B6
:101A900001F00701062903D0016841F0010101604E
:101AA000002010BD002C0140003401400004004023
:101AB00000080040000C004070477047F8B502680D
:101AC00004461068D168536910F00F0F4FF00005FD
:101AD00053D003F0010601F4907737435FD0C2077B
:101AE00005D0CA0503D5226C42F0010222644207E8
:101AF00005D5DA0703D0226C42F002022264820785
:101B000005D5DA0703D0226C42F0040222640207F2
:101B100007D501F02002324303D0226C42F00802C4
:101B20002264226C002A34D0800604D5880602D5AF
:101B3000204600F0B3FE20684069216CC0F380109D
:101B4000090700D430B3204600F090FE20684169B8
:101B500049061BD5416921F040014161A06BA8B144
:101B600058494163A06BFEF787FE002811D0A06B97
:101B7000416B01B0BDE8F040084783060FD58B06E6
:101B80000DD52046BDE8F84000F088BE2046FFF79E
:101B900094FFF8BD2046FFF790FF2564F8BD266B43
:101BA0002023012E52D1C60650D5CE064ED5106840
:101BB00050680090506940062AD5A16B08684068BB
:101BC0000004000CEAD0A68D8642E7D9E08588693A
:101BD000202818D0D06820F48070D0602068416937
:101BE00021F0010141612068416921F0400141611A
:101BF00084F83E3025632068C16821F01001C1607F
:101C0000A06BFEF715FEA08DE18D401A81B219E0A0
:101C1000A08DE18D401A81B2E08D0028BED0002950
:101C2000BCD0D06820F49070D0602068426922F067
:101C30000102426184F83E3025632068C26822F0C8
:101C40001002C2602046FFF737FFF8BD05062BD50E
:101C50000D0629D594F83D002128F6D1A068B0F5ED
:101C6000805F01D12069B0B1206A411C21622168E6
:101C700000784860E08C401E0004000CE084E4D151
:101C80002068C16821F08001C1602068C16841F00E
:101C90004001C160F8BD206A0088C0F308005060B0
:101CA000206A801C2062E5E74006F3D54806F1D59E
:101CB000D168204621F04001D16084F83D3000F029
:101CC0004CF9F8BD5D28000870B5040004D094F804
:101CD0003D00002510B106E0012070BD84F83C50A5
:101CE000204600F023F8242084F83D002068C168D5
:101CF00021F40051C160204600F02CFE20680169EB
:101D000021F4904101612068416921F02A0141617B
:101D10002068C16841F40051C1602564202084F826
:101D20003D0084F83E00002070BD0000F0B585B095
:101D3000002500950195029503950646384F0368E6
:101D4000384902200322384CBB4226D18B6943F428
:101D500080438B618B6903F4804304938B6943F068
:101D600004038B618969039201F00401049101026B
:101D7000CDE9001069462046FEF7C2FF2015CDE9E7
:101D80000005694620460295FEF7BAFF0322114678
:101D90002520FFF72BF925203DE0244FBB423CD105
:101DA000CB6943F40033CB61CB6903F40033049374
:101DB0008B6943F004038B618969039201F004018C
:101DC00004910421CDE9001069462046FEF798FFF2
:101DD0000820CDE90005694620460295FEF790FFF0
:101DE000144C134820601020C4E901058020C4E988
:101DF000030540016561C4E906502046FEF7F8FE80
:101E000008B1FEF7FFFC74630322022126206662FC
:101E1000FFF7ECF82620FFF7DBF805B0F0BD000077
:101E2000003801400010024000080140004400401A
:101E3000800002409002002090F83E30202B0ED10E
:101E400059B152B190F83C30012B08D0012380F8F1
:101E50003C300023036300F0D9BD0120704702200D
:101E6000704700000C49884214D10C480C4A037892
:101E70000C4801885354491C89B20180114411F85F
:101E8000011C0A2901D100210180012203490248D5
:101E9000FFF7D2BF704700004C0200200A0000206C
:101EA00040010020080000202DE9F843044690F886
:101EB0003D001F4616460D4620284CD1C5B1BEB187
:101EC00094F83C00012846D0012084F83C004FF0F3
:101ED0000008C4F84080212084F83D00FFF716F880
:101EE000A6848146E684A068B0F5805F03D004E054
:101EF0000120BDE8F883206928B12E465FF0000577
:101F000084F83C800EE00026FAE78021204600F0AD
:101F100098FDA0B9AEB116F8010B21684860E08CBD
:101F2000401EE084E08C4B464FF0000200970028F2
:101F3000EBD14FF04001204600F083FD30B103208B
:101F4000D7E735F8020BC0F30800E6E7202084F855
:101F50003D000020CDE70220CBE77047FEE7000000
:101F6000094808B5416941F0010141614069002219
:101F700000F00100009011461120FFF737F8BDE88E
:101F800008401120FFF724B8001002402DE9F0436B
:101F900085B000243F480094019402940394816921
:101FA00041F020018161816901F020010491816982
:101FB00041F010018161816901F010010491816992
:101FC00041F004018161816901F00401049181699A
:101FD00041F00801816180692F4F00F008000490F2
:101FE000002209213846FEF78CFFDFF8B08000227E
:101FF00010214046FEF785FFDFF8A49000228021E3
:102000004846FEF77EFF092001250226CDE900059E
:10201000CDE9024669463846FEF772FE2148694618
:10202000CDE9006038460296FEF76AFE04208DE88E
:10203000310069463846FEF763FE1020CDE9000501
:10204000CDE9024669464046FEF75AFE4FF4C0709D
:102050008DE8310069464046FEF752FECDE9005456
:10206000694648460295FEF74BFE8020CDE9000503
:10207000CDE9024669464846FEF742FE0222114675
:102080000720FEF7B3FF0720FEF7A2FF05B0BDE86B
:10209000F0830000001002400010014000080140E1
:1020A000000C01400000111010B586B00024164845
:1020B000009401940294039404944FF08041059499
:1020C00001604721C0E901144FF6FF71C0E9031414
:1020D0008461FFF78BFA08B1FEF794FB4FF4805050
:1020E000009069460848FFF706FB08B1FEF78AFB37
:1020F000049404A904480594FFF73AFA002801D093
:10210000FEF780FB06B010BD2000002010B58AB09D
:10211000002407941C2168460894FEF73EF81B48EB
:102120001949016040F26711C0E9011440F69F713E
:10213000C0E903148461FFF70AFC08B1FEF762FBF3
:10214000079407A911480894FFF712FA08B1FEF79F
:1021500059FB6020CDE900040294002269460B4837
:102160000494FFF791FB08B1FEF74CFB0C22694683
:102170000648FFF789FB08B1FEF744FB0348FFF769
:1021800025FB0AB010BD00000004004068000020DC
:1021900010B58AB0002407941C2168460894FDF706
:1021A000FCFF1B48194901600121C0E9011440F6F8
:1021B0000F61C0E9031480218161FFF7C8FB08B1FA
:1021C000FEF720FB079407A911480894FFF7D0F900
:1021D00008B1FEF717FB7020CDE900040294082235
:1021E00069460B480494FFF74FFB08B1FEF70AFB62
:1021F0000C2269460648FFF747FB08B1FEF702FBD1
:102200000348FFF7E3FA0AB010BD000000080040E1
:10221000B000002010B58AB0002407941C21684645
:102220000894FDF7BAFF17481549016040F267119D
:10223000C0E9011440F69F71C0E903148021816157
:10224000FFF785FB08B1FEF7DDFA079407A90D48F3
:102250000894FFF78DF908B1FEF7D4FA6020CDE9B4
:10226000000402940022694606480494FFF70CFB20
:1022700008B1FEF7C7FA0348FFF7A8FA0AB010BD85
:10228000000C0040F80000200C4810B50A4901601D
:102290004FF4E1314160002181600C22C160C0E94E
:1022A00004128161C161FFF70FFD002803D0BDE872
:1022B0001040FEF7A7BA10BD003801400802002008
:1022C0000C4810B50A4901604FF4E131416000212A
:1022D00081600C22C160C0E904128161C161FFF715
:1022E000F3FC002803D0BDE81040FEF78BBA10BD08
:1022F000004400404C020020FEE7704770477047E2
:1023000070B505460846FEF796F90022124BFEF717
:1023100066F80022114BFEF7D4F80022104BFDF7AF
:10232000B7FFFEF76FF980B2FEF73AF9022D09D038
:102330000C49052D0C680BD00C2D02D1FEF74EF97F
:10234000606370BDFEF74AF907490968486370BDCC
:10235000FEF744F9206470BD0000344000002240C4
:102360000000594068000020F8000020F0B4642903
:1023700001DB642104E06FF06302914200DC11464E
:10238000234A244E012412686FF4616540F60F63FE
:1023900070B1012839D1204F002923DD01EBC100A4
:1023A00005EB8000C0F1000010644FF0000223E054
:1023B000002907DD01EBC10005EB8000C0F1000042
:1023C000D06320E00CDAC1F1000000EBC00004EBA8
:1023D0008000D0634FF001024FF0100130460EE054
:1023E000D36310E00EDAC1F1000000EBC00004EB93
:1023F000800010644FF001024FF080013846F0BCBD
:10240000FEF77FBD13640022E6E7F0BC70470000D2
:10241000B000002000080140000C0140FEF77CBD28
:1024200030B58FB028216846FDF7B7FE14210AA801
:10243000FDF7B3FE01210804CDE900100024029449
:1024400002250491CDE907504FF4E0100990684649
:10245000FEF7EAFE60B90F20CDE90A056802CDE972
:102460000C4002210AA80E94FEF7F2FD002801D0CC
:10247000FEF7C8F90FB030BD70470000F0B5026834
:102480001C4B1D4D1D4E1E4F1E4C4FF0804C984254
:1024900009D0A04207D0604505D0A84203D0B04281
:1024A00001D0B84204D122F0700E4A6842EA0E020E
:1024B000984209D0A04207D0604505D0A84203D079
:1024C000B04201D0B84203D122F44075CA682A4311
:1024D0004D6922F080022A4302608A68C2620A685B
:1024E0008262984201D0A04201D1096901630121B1
:1024F0004161F0BD002C0140000400400008004094
:10250000000C00400034014010B501F01F03012110
:10251000046A99408C430462016A9A401143016243
:1025200010BD10B5846842EA032224F47F440A43B4
:102530002243826010BD826822F070020A4342F09A
:102540000701816070470000F0B5026A22F00102C5
:102550000262036A42688469124E24F073050C68B3
:102560002C4323F002058B682B430D4DA84201D06C
:10257000B04205D123F00807CB683B4323F00403A6
:10258000A84201D0B04205D14D6922F440721543F2
:102590008A692A4342608461496841630362F0BDED
:1025A000002C014000340140F0B5026A22F0100214
:1025B0000262026A436884690D6824F4E64444EACE
:1025C00005248D6822F0200242EA05120F4D104EBC
:1025D000A84201D0B04206D1CF6822F0800242EA80
:1025E000071222F04002A84201D0B04207D14D6943
:1025F00023F4406343EA85038D6943EA850343601E
:102600008461496881630262F0BD0000002C0140D2
:1026100000340140F0B5026A22F480720262026A5C
:102620004368C46922F4007224F073050C68124EEA
:102630002C438D6842EA05220E4DA84201D0B042DB
:1026400006D1CF6822F4006242EA072222F48062B7
:10265000A84201D0B04207D14D6923F4405343EA68
:1026600005138D6943EA05134360C4614968C1637A
:102670000262F0BD002C01400034014030B5026A16
:1026800022F480520262046A4268C3690D6823F42E
:10269000E64343EA05238D6824F4005444EA0534F4
:1026A000084DA84202D0084DA84204D14D6922F439
:1026B000804242EA85124260C36149680164046253
:1026C00030BD0000002C01400034014010B5036A09
:1026D000046A24F001040462846924F0F00444EAEA
:1026E000021423F00A020A438461026210BD10B58D
:1026F000036A23F0100303628369046A23F47043BE
:1027000043EA023224F0A00343EA0111826101622C
:1027100010BD00002DE9F0474D4E01213046FEF777
:10272000EBFB4C4D4C4C4FF4807A50B95146284647
:10273000FEF7E2FB012804D180212846FEF7DCFBEE
:1027400038B101213046FEF7D7FB4327012802D0DC
:102750000CE0412074E051462846FEF7CDFB28B935
:1027600080212846FEF7C8FB002862D00121B1462F
:102770003046FEF7C1FB4FF0440870B95146284679
:10278000FEF7BAFB78B1002601214846FEF7B4FBFC
:10279000012800D00020064230D101214846FEF732
:1027A000ABFB10B115E00126EEE751462846FEF7D7
:1027B000A3FB50B1002601214846FEF79DFB30B136
:1027C0000020064205D042203AE00126F3E701202E
:1027D000F7E701214846FEF78FFBA0B9514628468E
:1027E000FEF78AFB01280CD0002601214846FEF79F
:1027F00083FB012800D00020064204D084F800802A
:102800001FE00126F1E701214E464846FEF774FB22
:10281000012814D151462846FEF76EFB01280AD044
:10282000002501213046FEF767FB30B1002005424C
:1028300005D0277005E00125F3E70120F7E74920DF
:10284000207061782078814200D06070BDE8F08708
:10285000000C0140000801400000002010B5406A53
:102860000021C185C184FFF728F910BD0168CA683D
:1028700022F49072CA6001684A6922F001024A613A
:10288000016B012904D10168CA6822F01002CA60F4
:10289000202180F83E1000210163704708B590F8B0
:1028A0003E10222901D0022008BD82684FF48053D7
:1028B0009A4201D1016921B1816A9A421BD04AB181
:1028C0000AE00268816A5268C2F308020A80816ADB
:1028D000891C08E0026972B10268526802F07F0246
:1028E0000A70816A491C8162C18D491E0904090C64
:1028F000C18503D019E002685268F1E70168CA682F
:1029000022F02002CA600168CA6822F48072CA609C
:1029100001684A6922F001024A61202180F83E10D4
:10292000016B012903D0FFF79DFA002008BD0021AB
:1029300001630168CA6822F01002CA6001680A686F
:10294000D20602D50A6849680091818DFFF7B4F874
:10295000EBE7000070B5044600680169E26821F405
:102960004051114301612169A0680843616908432E
:102970002168CA6841F20C639A430243CA60206826
:102980004169A26921F44071114341611E492068E7
:10299000884202D1FEF702FC01E0FEF7EFFB00EBFC
:1029A000C00101EB0012606864218000B2FBF0F30B
:1029B000B3FBF1F36FF018067343B2FBF0F5B2FB13
:1029C000F0F605EB8305322303EB0515B5FBF1F5B6
:1029D000B6FBF1F605F0F00505EB0615B2FBF0F6D7
:1029E000B2FBF0F0B0FBF1F06FF01802504306EBD1
:1029F000800003EB0010B0FBF1F0216800F00F0045
:102A00002844886070BD00000038014081628285E2
:102A1000C28500210164222280F83E2080F83C100B
:102A20000168CA6842F48072CA6001684A6942F06B
:102A300001024A610068C16841F02001C1600020C4
:102A400070472DE9F041984617460E460446069D0C
:102A50001DE0681C1BD02DB1FEF758FAA0EB080052
:102A6000A84214D92068C16821F4D071C1602068DF
:102A7000416921F001014161202084F83D0084F882
:102A80003E00002084F83C000320BDE8F08120686F
:102A9000006836EA000004D00020B842D9D00020F7
:102AA000F3E70120F9E700000148FFF707B800004D
:102AB000080200200148FFF701B800004C02002086
:102AC00010B50A4C012211462046FEF71AFA1420CE
:102AD00000F096F8002201212046FEF712FA044881
:102AE0000068BDE81040FDF760BD00000010014027
:102AF00004000020FEE70000014A024900F023B86C
:102B0000712C00081C0000200907090E002804DBB6
:102B100000F1E02080F80014704700F00F0000F191
:102B2000E02080F8141D704702E008C8121F08C199
:102B3000002AFAD170477047002001E001C1121F3E
:102B4000002AFBD170472DE9F04116460F46044696
:102B5000002503E03946B047641C6D1C207800282E
:102B6000F8D12846BDE8F08170B50D46404241B22B
:102B70000C460120FFF7FAFB21460020FFF7F6FB89
:102B80002846BDE87040FEF771B8000010B5044655
:102B900000210120FFF7EAFB00210846FFF7E6FBD2
:102BA000002210210648FEF7ACF9002280210548DA
:102BB000FEF7A7F92046BDE81040FEF757B8000021
:102BC00000080140000C0140A0F1410248B2092A6E
:102BD00015D2DFE802F005080B0E141414141100CE
:102BE0000A2100F035B80A21FFF7BEBF0A2100F024
:102BF000CDB80A2100F0DAB80A20FFF7C7BF704746
:102C000071B54FF461754FF0E023104E009819E054
:102C10002C46A04200D804469869614201EBC101EC
:102C200010EBC10105D49A69824208DA8A42FADAC5
:102C300005E08A1999698142FCDD9142FADC00982D
:102C4000001B00900028E3D178BD0000401901006E
:102C500070B50D46044601460120FFF787FB21466B
:102C60000020FFF783FB2846BDE87040FDF7FEBF5C
:102C700013B54FF6FF73012269460248FFF714F9B6
:102C800000981CBD4C02002010B5164C03E0042136
:102C90002046FEF731F904212046FEF72DF90028E1
:102CA000F5D017E00A20FDF7E1FF04212046FEF7EA
:102CB00023F9012809D1012208212046FEF721F934
:102CC00004212046FEF718F920B9002208212046E9
:102CD000FEF717F904212046FEF70EF90128E1D08E
:102CE00010BD000000100140FEF71EF9FFF798FB31
:102CF000FFF74CF9FFF734F9FFF74AFAFFF7D4F979
:102D0000FFF788FAFFF7C0FAFFF700FAFFF7D8FAE3
:102D100008211648FEF776FE0C211448FEF772FED5
:102D200000211348FEF76EFE00211248FEF76AFEEE
:102D30000C211048FEF766FE01220F490F48FFF7ED
:102D40007BF83220FFF722FFFFF79EFF0CA0FFF772
:102D5000D3FE0D4C02202146FFF7D2FAFFF7B0FE5A
:102D6000FFF7D8FC3221FFF72FFFF3E7B000002078
:102D7000F8000020680000200A0000204C0200201B
:102D800068656C6C6F0A00000000B44270B50D46B7
:102D9000044600210120FFF7E9FA21460020FFF751
:102DA000E5FA2846BDE87040FDF760BF10B50C4657
:102DB00001460120FFF7DAFA00210846FFF7D6FAAC
:102DC0002046BDE81040FDF751BF000000000000A4
:102DD00000000102030406070809000000000102C8
:102DE00003040000042E0008000000202000000062
:102DF000282B0008242E000820000020B806000020
:102E0000382B0008494900000000000000000000C5
:102E10000100000010000000000000000024F40089
:042E200000000000AE
:0400000508000131BD
:00000001FF
